{
  "hash": "0x6d068067a5e5a0f08c6395b31938893d1cdad81f54a54456221ecd8c1941294d",
  "type": 0,
  "accessList": null,
  "blockHash": "0xefbb71d5ad4e145f15484b3fd4807b308b91118880305ccf6fa5c3fb5c9b1aab",
  "blockNumber": 26549862,
  "transactionIndex": 15,
  "confirmations": 1029723,
  "from": "0xf4f087451055f7daf82ece742489F6F428A24e20",
  "gasPrice": {
    "type": "BigNumber",
    "hex": "0x3b9aca00"
  },
  "gasLimit": {
    "type": "BigNumber",
    "hex": "0x03b85d"
  },
  "to": "0x37F4df6e6E75F288f85B970F3a58D1Aeb5E882A1",
  "value": {
    "type": "BigNumber",
    "hex": "0x00"
  },
  "nonce": 14,
  "data": "0x3d18b912",
  "r": "0xb1d265af60265817dcd3baed68fcd92cb501bd36332c1d70d6838ceaae3a7abe",
  "s": "0x1f32c4f3a20e90e26bde70dbb458dddbeedc96dd05318d25b9bad3f731eadf38",
  "v": 120,
  "creates": null,
  "raw": "0xf8680e843b9aca008303b85d9437f4df6e6e75f288f85b970f3a58d1aeb5e882a180843d18b91278a0b1d265af60265817dcd3baed68fcd92cb501bd36332c1d70d6838ceaae3a7abea01f32c4f3a20e90e26bde70dbb458dddbeedc96dd05318d25b9bad3f731eadf38",
  "chainId": 42
}
